:020000041000EA
:1000000000B5324B212058609868022188439860DF
:10001000D860186158612E4B002199600221596106
:100020000121F02299502B49196001219960352056
:1000300000F044F80222904214D00621196600F024
:1000400034F8196E01211966002018661A6600F04E
:100050002CF8196E196E196E052000F02FF8012189
:100060000842F9D1002199601B49196000215960AB
:100070001A491B48016001219960EB211966A021F2
:10008000196600F012F800219960164914480160C1
:100090000121996001BC002800D000471248134993
:1000A000086003C880F30888084703B5996A0420EC
:1000B0000142FBD001200142F8D103BD02B5186610
:1000C0001866FFF7F2FF186E186E02BD00000240BE
:1000D000000000180000070000035F00212200005C
:1000E000F4000018222000A00001001008ED00E03C
:1000F00000000000000000000000000074B24E7A12
:1001000000200420F7010010C3010010C5010010F9
:10011000C1010010C1010010C1010010C101001097
:10012000C1010010C1010010C1010010C701001081
:10013000C1010010C1010010C9010010CB01001065
:10014000CD010010CD010010CD010010CD01001037
:10015000CD010010CD010010CD010010CD01001027
:10016000CD010010CD010010CD010010CD01001017
:10017000CD010010CD010010CD010010CD01001007
:10018000CD010010CD010010CD010010CD010010F7
:10019000CD010010CD010010CD010010CD010010E7
:1001A000CD010010CD010010CD010010CD010010D7
:1001B000CD010010CD010010CD010010CD010010C7
:1001C00000BE00BE00BE00BE00BE00BEEFF3058054
:1001D000103800BEF2EB8871E48700101088001020
:1001E0003402001090A31AE700201F49086006C8D7
:1001F00081F3088810471D48006800282FD10DA4FE
:100200000ECC002902D000F012F8F9E71849194A7B
:10021000002000E001C19142FCD1174988471749ED
:1002200088471749884700BEFDE701C901C29A42C5
:10023000FBD3704710880010C00000209C030020F2
:10024000EC8A00100000042000000420EC8A00105A
:10025000001004200010042000000000704709482E
:1002600003F032FB0047000008ED00E0000000D082
:10027000A0030020241800207D240010A5040010F5
:100280006D2500105756000006005250ABB3605366
:100290006082001006005250861C0302D47C0010BD
:1002A000060052505422A29D708200100500525048
:1002B000DE65F468EC8A0010F8B5C04610B5064C4F
:1002C0002378002B07D1054B002B02D0044800E017
:1002D00000BF0123237010BDA00400200000000017
:1002E000707C0010044B10B5002B03D00349044868
:1002F00000E000BF10BDC04600000000A4040020C4
:10030000707C001010B50C0000220C21022000F0BF
:100310009BFC63070DD5D02380221B0652005A6137
:100320005B681B0739D501220C21022000F08CFCF0
:1003300010BDD0211E4A0906137801200133DBB21B
:1003400013704C68640618D40F24A34313704968D3
:10035000C90908421DD0D02212065168490712D59A
:1003600014481909405C01211B075B0F9940802349
:100370005B0001421AD09361D5E74968C909084278
:1003800007D0DA07E7D5D02380221B0652005A6136
:10039000C9E70F210B401370F3E70E20044B1B78C5
:1003A000184000F099FB00F01BFBBCE75361BAE773
:1003B00016180020B815002010B5064B01001B7858
:1003C000002B02D100F096FB10BD034804F0E0FAC8
:1003D000F8E7C0461F180020707C001010B5054BD0
:1003E00001001B78002B00D110BD034804F0D0FAA7
:1003F000FAE7C0461F180020987C0010F8B5CE46DA
:100400004746022080B500F0AFFC062000F0ACFCAF
:10041000072000F0A9FC032000F0A6FC082000F053
:10042000A3FC092000F0A0FC152000F09DFC162084
:1004300000F09AFC142000F097FCD0241A2000F061
:1004400093FC04232406A3623C33A3624033A362DB
:10045000783BA362F833636299460133FF336362EA
:1004600098468026802780258023B603FF036D03EE
:10047000DB046662012167621A206562A36200F0F4
:100480005FFC002201211A2000F0C8FB4B4663618B
:1004900043466361A761A6616561C0BCB946B046C9
:1004A000F8BDC04670B507F06BFBFFF7A7FFD02380
:1004B00001221B065B685B01DB0F5340194A137076
:1004C0002BD1194C14220021200004F0C1F8022382
:1004D000A37300F073FA002005F006F9D02500F0B0
:1004E000A5F801220C210220104B00F0F7FB012699
:1004F0002D0601200021404205F006FE00F00CFA16
:1005000000F0B0FA237C1E4203D080239B00AB6135
:10051000EFE780239B006B61EBE7054804F0C4F92B
:10052000CFE7C0461F180020B815002005030010B3
:10053000C47C0010F0B54E464546DE465746E0B551
:1005400087B001AD060014220021280004F080F8D5
:100550000223AB732F4B002498462F4B2F4F994605
:100560003378012223411A420DD0395DFF290AD088
:10057000072008408240CB08E85C0243EA54434627
:100580001B78002B42D10134082CE9D1082398466E
:10059000204BB41C9946204BB0449A46204B214E28
:1005A0009B4602E00134A04524D02378F75CFF2F5E
:1005B000F8D00721012339408B40FA08A95C0B438E
:1005C000AB544B461B78002BECD03900504604F05E
:1005D000DFF9092FE6D14B461B78002BE2D05B46B2
:1005E000187808230134584000F076FA00F0F8F942
:1005F000A045DAD1142229000B4804F02FF807B0E7
:10060000F0BCBB46B246A946A046F0BD484604F041
:10061000BFF9B8E71F1800201C7D0010807F001074
:100620001C180020A07E0010B815002010B5064C44
:100630004C220021200004F00BF820004C22002165
:100640004C3004F005F810BD141500200D4A0300CD
:10065000107810B5834209D04C21515C8B4207D0F1
:1006600000280DD0FF20002904D010BD0020FCE799
:100670000120FAE70124FE384C2161435354F4E78A
:100680000024F9E714150020F0B5DE4657464E4623
:100690004546E0B59B46354B050099461B780C0056
:1006A000924687B0002B57D103AF3A00304B43CB73
:1006B00043C22100280006F073FB4B461B7806005E
:1006C000002B43D100F00EFA032C31D82800FFF79D
:1006D000BDFF8046FF2818D04C2342465A4394461B
:1006E000E7003F1923497F00B81D60448C465B46F4
:1006F000019260445246042106F02AFD019B9C466B
:100700001C4B67449C4667443871012E14D021006D
:10071000280006F093FB002803D14B461B78002BE2
:1007200020D107B0F0BCBB46B246A946A046F0BDFA
:10073000FF239846012EEAD142464C2353430D48ED
:10074000C0184670847000F0EFF9E0E78300D959D3
:10075000094804F01DF9B5E70A000100074804F054
:1007600017F9A1E7064804F09FF8DAE71F18002000
:10077000947E001014150020587D0010247D001078
:10078000787D001010B50D4B04001B780A00002B7B
:100790000FD10B4B1A78A24205D04C229A5C012152
:1007A000A24201D010BD00214C224A43002199549D
:1007B000F8E70100034804F0EBF8EAE71F1800200F
:1007C00014150020A47D0010F8B506000D001700D8
:1007D00006F0E6FA01283BD0022831D02A490B78EE
:1007E000B34247D04C23CB5CB3424AD0FF242748C6
:1007F000EA00521953004C2262439A188A180633B1
:10080000127918180818012A26D03B789C46002A2D
:1008100028D001780023041D05E00133DBB29A42A1
:1008200020D9217804348C45F7D19B00C0180137BA
:100830004388012B04D14378022B1ED0062B04D011
:100840002900300006F0FAFAF8BD114804F02CF83F
:100850003800FFF76FFEF3E701780029E8D03B7816
:100860009C46D7E70B4B1B78002BE9D00A4804F0D5
:100870001BF8E5E700200024BAE7084804F014F864
:10088000DEE74C200124B3E714150020B44B000030
:10089000107E00101F180020DC7D0010407E00102C
:1008A000F0B5C64600B5174C82B02378012B1DD891
:1008B000154A164D9046164E164F05E02378013323
:1008C000DBB22370012B11D84C225343E85C002883
:1008D000F4D0EB185A78012AF0D1997801920223CA
:1008E0000022009606F06CFA002803D002B080BC0B
:1008F000B846F0BD3B78002BE0D0404603F0D4FF73
:10090000DCE7C046191800206C7E0010141500208A
:10091000181800201F18002010B501F02FF9002929
:100920000AD0FA220023920003F066F81B4A1368EB
:10093000C01A632809D810BDFA21890003F01EF8F7
:10094000164A1368C01A6328F5D96433136000F09F
:10095000D9F80028EFD000F0B5F8040000F0DCF87A
:1009600002231A002240234213D10D4B1A70620752
:1009700003D504211A780A431A70220703D40221EE
:100980001A780A431A700022064B1A70FFF788FF84
:10099000D1E70122024B1A70E9E7C046F0170020A8
:1009A000181800201918002010B5034A13780133D5
:1009B0001370FFF775FF10BD191800200023044ABB
:1009C0001370044A1370044A1370044A137070477A
:1009D0001E1800201C1800201B1800201A180020C8
:1009E0001C4B1A781C4B1B7853401C4A11789942B7
:1009F0001AD0990719D4D02180200906C003886134
:100A0000590719D5D02180200906800348611907AC
:100A100019D4D021802009064003486101211370B8
:100A20000F4A13780B4313707047D02180200906BA
:100A3000C00348615907E5D4D0218020090680030E
:100A400088611907E5D5D021802009064003886117
:100A5000E4E7C0461C1800201B1800201D180020C9
:100A60001E18002010B501F089F8002917D0FA22CD
:100A70000023920002F0C0FFFA210F4A49001368D8
:100A8000C01A88420AD35B18136000230B490C4A32
:100A90000B701378002B07D1FFF7A2FF10BDFA21CE
:100AA000890002F06BFFE7E7013BDBB21370DB0765
:100AB000F2D504230B70EFE7F41700201B18002079
:100AC0001A180020024B1878024B1B7858407047C8
:100AD0001C1800201B180020014B18707047C046DE
:100AE0001C1800200221024A13780B431370704730
:100AF0001E1800200221024A13788B43137070479E
:100B00001E180020034B1878013843425841C0B2E8
:100B10007047C0461E1800200121024A13788B43FB
:100B2000137070471E1800200622014B1A70704780
:100B30001A180020D0231B061B68F0B59A004E46F9
:100B400091464946254ADE465258574693465A1E14
:100B50009341302245465B421A401300204AE0B5DB
:100B6000944683B0634401931E4B08270F269A4690
:100B70003D00083DEB08019A08339B009C58002C6F
:100B800022D00123984631002140264216D0434608
:100B900052464846AB4012581A420FD1072208006D
:100BA0002A40920090400200EB080F483C339B0023
:100BB0001A505B46002B01D02800D8472409013584
:100BC000002C01D0BD42DED30837282FD0D103B08E
:100BD000F0BCBB46B246A946A046F0BD901200202C
:100BE00000410140E015002000400140094A830017
:100BF00094464022634410B51C68C0006240C02483
:100C000014408022520113431C60034B9C466044F5
:100C1000416010BD04C0014000400140094B80000C
:100C20009C464B1E99416044C900002A01D0042310
:100C3000194303684B400C21194080235B01184382
:100C40000160704704C00140D0231B061B6830B50B
:100C50000500581E83410F485C428446072030231C
:100C6000284023408000EC08814020000A4D3C30A1
:100C700063448000A40041511B19002A04D0802243
:100C800092011343196030BDC022920113431960D1
:100C9000F9E7C0460041014000400140D0231B0657
:100CA00070B51C680B4EA40033590500002B03D00F
:100CB00000280AD0355170BD0028FCD030510022E8
:100CC0000D20054900F054F9F5E70D20024900F028
:100CD00043FAEFE790120020350B0010F8B507003B
:100CE0001800D0231B061C680725631E9C41302377
:100CF00064421C40104BFE089C463D403300AD0052
:100D0000A9403C330D4D64449B00B6005951A419D1
:100D1000002A0AD080239B011C432160FFF7BEFFFD
:100D200001210D2000F0E0F8F8BDC0239B011C4319
:100D30002160FFF7B3FFF7E70041014000400140A9
:100D4000084B80009C466044002905D080239B010D
:100D50001843402303607047C0239B01184340237E
:100D60000360F8E704C001400123D022834012064B
:100D700093629361094A8300944640226344196850
:100D8000C0004A40C0211140802252011343196023
:100D9000034B9C46052360444360704704C00140F8
:100DA00000400140024B18688007C00F7047C046E2
:100DB00000C0064070B5EFF3108C72B60D4D2B6875
:100DC000002BFCD0BFF35F8F0724CB08C618C05C94
:100DD00001230C40A3401C000440034207D10343FD
:100DE0003370BFF35F8F2C608CF3108870BD1000E0
:100DF00001F0C0FB2C0100D0F8B54746CE4688462E
:100E000080B5EFF3108C72B6214D2C68002CFCD00D
:100E1000BFF35F8F9A422CD8D4080727055D0619C7
:100E200001241740BC402C421FD0072101278946CE
:100E300009E0D408055D06194C4639001440A1406C
:100E40000C00294211D001329342F2D201204042DB
:100E5000BFF35F8F00220E4B1A608CF310880028BE
:100E60000FDBC0BCB946B046F8BD2C43100034704F
:100E7000EEE7BFF35F8F00232B608CF31088012017
:100E800040424346002BECD0089801F073FBC0466B
:100E90002C0100D00021044B044ABFF35F8F02C332
:100EA0009342FAD17047C046000100D0800100D0C3
:100EB000044A1078431CDBB2172B00D9102313709F
:100EC0007047C046A002002000B5054B83B001006A
:100ED000009318221F230348FFF78EFF03B000BDC5
:100EE000A07F0010A012002001238340002904D01D
:100EF000034A1360034A13607047034A1360FBE719
:100F000080E200E000E100E080E100E0024B103010
:100F10009B688000C058704700ED00E070B50D0080
:100F2000EFF3108672B60F4A1368002BFCD0BFF3A4
:100F30005F8F0D4B10309B6884001B590B4A934206
:100F400003D09D4201D001F02DFB074B9B681D5142
:100F5000BFF35F8FBFF35F8F0022024B1A6086F3EF
:100F6000108870BD240100D000ED00E0CD0100101C
:100F7000F0B557464E46DE464546E0B585B006001C
:100F800002911700EFF3108B72B6674A1368002BBB
:100F9000FCD0BFF35F8F0025644B5D579A46002D50
:100FA00000DAA4E06B00624C03935B199B00984647
:100FB000A146C1444B4652469B79103613705D4B97
:100FC000B2009B68019299580B1B2F2B34D95A4BB6
:100FD000994200D0A4E0039B584A9C46584B654474
:100FE000AD006353434602336519E418554B0121A4
:100FF000043B1B1B1B055B0D13436B80524BEF71B6
:10100000AB80FF23AB71029BAB604B460B431900D7
:10101000484B019A9B689950BFF35F8FBFF35F8F76
:101020000022414B1A608BF3108805B0F0BCBB4620
:10103000B246A946A046F0BD01200A008243D379FA
:10104000BB422FD845464E46130040491B1B5B410F
:101050005943090D3A4B63533A4B02356519043B2A
:101060005B1B1B05354D5B0D2B4373800426B4467B
:10107000E0444444131F1B1B4C46A17102991B05FD
:10108000A16049465B0D2B43A380314BE7710143BF
:101090001360BDE75800C01880002018C679BE4212
:1010A0002BD902000623D356002BF3DA101D8246FB
:1010B0002848804604267642B446E14450464E46CF
:1010C000361A3005400D824656461C489571064337
:1010D0009680039A944665441D4AAD0064192260C7
:1010E0004246A371029BA280E771A36090E701F0E2
:1010F00059FA002553465D5754E7101D82469088E3
:101100004005001584464046D44466460430201805
:10111000301AE0260005400D360230438046C9E70C
:1011200001F040FA57E7C046240100D0171800200C
:10113000A402002000ED00E0CD01001000E0FFFF60
:1011400000A1FFFFD402002001BDFFFFAAAA0000FA
:101150000148804701BD0000F0B5DE4657464E46C7
:101160004546E0B50C0083B0EFF3108972B6584ADB
:101170001368002BFCD0BFF35F8F564B9A680300B7
:1011800010339F00D559544A9046954232D0A5421B
:1011900043D0524EAA1B2F2A2CD8012282409246BD
:1011A00051464F4A12681140019151464D4A116013
:1011B000BFF35F8FEFF305829346002A33D10123FB
:1011C0002A009A4393689C4208D177E04B005B1851
:1011D0009B00F3189968A1422AD01A0006215156A3
:1011E0000029F3DA019B002B19D052463E4B1A60BE
:1011F0003B4B1A60374B9B68DD51BFF35F8FBFF3EA
:101200005F8F0022324B1A6089F3108803B0F0BC64
:10121000BB46B246A946A046F0BD1500EAE75246D5
:10122000304B1A60E6E79342C9D001F0BBF9C6E73C
:1012300006215956002921DB4A0050188000341835
:101240008046A0689860E079D87106202056987191
:10125000002824DBA488F01A6405241544440019EE
:10126000E0240005400D24022043988052181F4BB3
:101270009200B6181A781970B271B3E7594600296E
:101280000FD1FF3191711A49918018490A789A71EA
:10129000184A9B1B5B415A43120D0A70A2E716487D
:1012A000E3E7164A1649D21A083A5002400D0143A4
:1012B0009980144952080A43DA8093E7062151566F
:1012C00013000029B8DA5A46002AEAD14546DCE77D
:1012D000240100D000ED00E0CD010010A4020020A8
:1012E00000E100E080E100E080E200E0171800206B
:1012F00001BDFFFFAAAA000001BD0000DE02002020
:1013000000F0FFFF00F8FFFFF0B5EFF30584C646DD
:10131000012600B50643EFF3108C72B61C4A136821
:10132000002BFCD0BFF35F8F1A4FA400BB681A4D8F
:101330001B590200984619490023521B5241514340
:10134000090D2A0049B2B04515D0062414578C4225
:1013500015D001330C32042BF7D1114B1A781970C8
:101360008271BFF35F8F0022094B1A608CF31088E3
:1013700080BCB846F0BDBB680A4A1A51EDE75A0076
:10138000D3189B00ED18FF23AB71074BAB80E4E74C
:10139000240100D000ED00E0A4020020AAAA000071
:1013A00017180020CD01001001BDFFFF054B064AB4
:1013B0001360064A136053609360D36013615361F6
:1013C000936170478080808000E400E004E400E0E6
:1013D000024B9C4661448900016070474000003424
:1013E00010B50400FFF764FD01002000FFF7F0FFD7
:1013F000FF232371BFF35F8F10BDC04610B50400FB
:10140000FFF756FD01002000FFF7E2FFFF23A38056
:10141000BFF35F8F10BDC04610B504000120FFF779
:1014200053FD044B9C46604480002060BFF35F8FF7
:1014300010BDC0464000003483680B4810B5844698
:1014400061446244090112019A18591854684B68A2
:1014500001209C4201D802D00020C0B210BD126809
:101460000B689A42F9D8F7E7FFFFFF0F0A4B19689C
:10147000EFF3108072B60A68002AFCD0BFF35F8FCA
:101480001B68BFF35F8F00221A6080F3108840BF93
:10149000002000217047C046EC17002070B542685C
:1014A0000400EFF3108572B61368002BFCD0BFF375
:1014B0005F8F2068CEB2437BB3420AD0FF230B403C
:1014C0005A00D318026894466344033B9B78002B70
:1014D00013D0FF230A0A0B40E168D2B28C46634462
:1014E000013B197891420ED000206368BFF35F8FF3
:1014F00000221A6085F3108870BD22699142F3D1F1
:1015000000202361F1E7310000F028FDEDE7C0463F
:10151000F8B557464E464546DE46E0B599460CAB13
:101520001D780DAB1B78060090469A460768002D83
:101530003BD02B006C003A686419033C1119374A00
:101540009446B2686344944642461B0163441A6061
:101550004A465A600A9A9A600B9ADA6000238B70A6
:101560004B700B707B7B9B46002B3ED02A0059466C
:10157000B8687B6898473A6800282AD05B46584686
:101580005B005B441419033BA070D118D35C002BA3
:1015900040D15B460D7028007B73AB4526D0F0BC74
:1015A000BB46B246A946A046F8BDB87B0028F6D097
:1015B00044003A682418033C11194A780300BA73AE
:1015C000002A00D1FA73002205008A704A700A705E
:1015D000B5E75B465B005B44033BD3189D70111974
:1015E000125D002A18D15B460B707D7342464B4654
:1015F000307D00F04DFB041E06D05346002B03D176
:101600002900306800F0AAFC0E9B2800002BC6D0F1
:101610001C70C4E76370BCE75A70E4E7FFFFFF0F7C
:10162000F0B5DE4657464E4645460023E0B58BB042
:101630000893674B8200D45800239B46099000F022
:101640009DFA626806000F00EFF3108572B613680A
:10165000002BFCD0BFF35F8F23689C465B7B9946D1
:10166000002B00D169E0A2685A4B90464B441B0105
:10167000984443461A685B6810001900801BB94102
:10168000002900DC63E0099800F002FB002300223F
:10169000984600230692079300239A466368BFF397
:1016A0005F8F5A461A6085F310885346002B08D185
:1016B0000028C4D10BB0F0BCBB46B246A946A04638
:1016C000F0BD089B414618024B461843D04762685C
:1016D00006000F00EFF3108572B61368002BFCD0E4
:1016E000BFF35F8F002F50DB33003B4302D02369F1
:1016F000002B61D12368D97B002907D04A005218FA
:1017000019688C4649466244033A51709A7B002A14
:1017100001D14A469A734A46DA734B46E168013B67
:10172000CA5C0132CA545B4623616368BFF35F8FB2
:101730005A461A6085F3108881E7002300229846F4
:10174000002306920793002300209A46A6E700296B
:1017500002D1002800D096E70021604600F0D2FBBD
:1017600043461A685B680692079343469B689A460D
:101770004346DB689846E3684B44013B1B7808937B
:101780001B0203432361002088E72369002BB1D0AB
:10179000069A079B921BBB41002B15DB594604910F
:1017A0000121039149460291414601915146200091
:1017B0000091FFF7ADFEB6E700F0E0F932003B0024
:1017C00012184B41002BE9DA0122034B5242E5E7A4
:1017D000D0150020FFFFFF0FFFFFFF7F10B5144C57
:1017E0006368002B04D00A211248FFF7F1FD10BDF9
:1017F0002300114A1021206800F0D2FA032000F0E3
:10180000B1F9032000F0AEFA03200C4900F0FAF918
:10181000FFF74EFB0A4B9C4603232375D0231B0680
:101820001B6860446375074B80006060DC60DAE72A
:10183000EC020020EC1700203914001021160010D3
:1018400040000034D0150020F0B54546DE4657462E
:101850004E46E0B58BB01D00149B80469B46159B01
:1018600014009A4616AB1B7802AA079300239946E8
:10187000D37743465A68EFF3108672B61368002B8D
:10188000FCD0BFF35F8F02AA94461F2363440493E6
:101890004B4603930293534601935B462200009309
:1018A00040462B00FFF734FE0023002804D04346B7
:1018B000DB681B18013B1B7842465268BFF35F8F01
:1018C0004946116086F3108800282FD002AAD27FE3
:1018D000002A08D11B0218430BB0F0BCBB46B2462D
:1018E000A946A046F0BD079B002B1DD05146002005
:1018F000D847030006000F000B4315D0002907DA74
:10190000A41BBD41002DB4DA01240A4D6442B0E7A6
:1019100000F034F934003D0024184D41002DA8DAC0
:101920000124044D6442A4E70020D5E70120404291
:10193000D2E7C046FFFFFF7FF0B504000D0006268A
:101940007642F717C64636196F4100B584B08F420C
:1019500014D811D000F012F932003B00121A8B415A
:10196000002B15DC002B3ED02000290000F03AF9B6
:1019700004B080BCB846F0BD8642EBD900260027F3
:1019800000F0FCF832003B00121A8B41002BE9DD1D
:10199000002302930193154B3200009314483B003F
:1019A000FFF752FF0028DFDB00239846BC46114AB0
:1019B000114F7B6A9C4504D8B96A8E42D4D99C45A4
:1019C000D2D11168EFF3108072B60B68002BFCD0F7
:1019D000BFF35F8F1368BFF35F8F4146196080F3D9
:1019E000108820BFE5E7002ABED0D1E76D140010B3
:1019F000EC020020EC1700200040054070B5060006
:101A000000F0BCF8FA2204000D0000233000002191
:101A1000920002F0B7FD00196941002902DBFFF7CF
:101A20008BFF70BD012001494042F8E7FFFFFF7FB7
:101A300070B5EFF3058305000C0084B0002B0AD0CD
:101A4000164A0020536A9C4203D8926A0130AA4287
:101A50001FD304B070BD124E02930193114B0200CC
:101A6000009330000B00FFF7EFFE011EE8DD20BF02
:101A70003000FFF713FD094B0020596A8C42E8D86B
:101A80009B6A0130AB42E4D2641A631E9C41E0B20F
:101A9000DFE7E41A631E9C41E0B2DAE7004005404C
:101AA000EC0200206D140010F0B5EFF30582D6466D
:101AB0004F4646461000C0B51038EFF3108872B696
:101AC000214C2368002BFCD0BFF35F8F012319004A
:101AD00081401E4D1F006963AA461D4D29601D4DA2
:101AE0002E78AC463500C5402F402B4209D1BFF3BC
:101AF0005F8F276088F31088E0BCBA46B146A846DD
:101B0000F0BD5346144D5F6A83005D59AF420ED35A
:101B1000124A8E439B5862461670BFF35F8F0022B5
:101B2000226088F31088002BE6D09847E4E70C4B3E
:101B300092009C46624413681360BFF35F8F0023DA
:101B4000236088F31088D7E7280100D000400540C3
:101B50003C70054020180020F8170020801200205B
:101B6000D03F054010B50100024A0348FFF722F9B3
:101B700010BDC046BC7F001014180020034B596AEA
:101B80000A00986A596A8A42FAD1704700400540B3
:101B900070B504000D00124A536A1900966A536A20
:101BA0008B42FAD13000190024184D41AB4211D8B4
:101BB0000ED02B000A494A6A9A42FCD307D1084A40
:101BC00002E0516A994202D1916AA142F9D370BDF3
:101BD000A642EED9012301246442E5175B42E9E7FE
:101BE00000400540064A536A9942FCD807D1044B8D
:101BF00002E05A6A914202D19A6A8242F9D370474E
:101C00000040054070B504000D00EFF3108672B679
:101C10001A4A1368002BFCD0BFF35F8F002D1BD036
:101C20002000FFF773F9164981420AD02000FFF720
:101C300075F901212000FFF757F90123A340114A4C
:101C40001360114BA400E550BFF35F8F00220B4BD4
:101C50001A6086F3108870BD0B4BA200D55001228C
:101C6000A2400A4920000B7893430B700449FFF708
:101C700073FA00212000FFF737F9E5E7280100D0CB
:101C8000A91A00103860054080120020201800209A
:101C9000F0B54F46D6464646C0B507002C4C616AA3
:101CA0000D00A66A616AA942FAD18B4208D805D014
:101CB0000120E0BCBA46B146A846F0BDB242F7D911
:101CC000EFF3108A72B6234801680029FCD0BFF3F5
:101CD0005F8F0125BD4020491D4C88460978894603
:101CE0002943C9B28C46414660460870391D1B48DD
:101CF000890065630A51B9000B50216A002029420E
:101D000019D0616A0800A66A616A8142FAD18B42E1
:101D100019D801D1B24216D8CC4516D00C4B1F2091
:101D20001D625D6301230740BB400D4A1E381360EE
:101D300043464A461A70BFF35F8F0022054B1A6074
:101D40008AF31088B5E70020F5E70120F3E7C046E5
:101D500000400540280100D020180020F81700207E
:101D600080E200E0EFF3108C72B60A490B68002B9A
:101D7000FCD0BFF35F8F01238340074A07481362FB
:101D800002789A430270BFF35F8F00230B608CF3DD
:101D900010887047280100D000400540201800201E
:101DA00030B583600023CCB24373013304734260C7
:101DB0008373C4730D000068012C06D9421C0133E3
:101DC000DBB2137003329C42F9D1FF2129404B0052
:101DD0005918002340180338437030BDF8B5CE467B
:101DE000474606000C0080B5002907D04D00036867
:101DF0006D18033D5A195778002F04D12000C0BC3C
:101E0000B946B046F8BD7900C9190339884643443C
:101E10005978894600215970517073683A00210041
:101E2000806898473368002827D1424641465D19AB
:101E3000AF709A185B5C002B00D06B7014703C0084
:101E400049463000FFF7CAFF051ED7D021002A00FF
:101E5000B068736898473168002818D06B005B1928
:101E60006200033B1219CB18033A9C7088188A5CF5
:101E7000002A00D05A700570C0E742469A18947044
:101E800059195B5D002B00D053700F70D8E76300C9
:101E90001B196A00033B5219CB18033A9D7088182E
:101EA0008A5C002A00D05A7004702C00A6E7C04655
:101EB000F8B54D006D180368033D0E00595D17001D
:101EC0000400FFF78BFF002F0CD12368002805D0FA
:101ED0000021420012189A18033A917000225B19EF
:101EE0005A70F8BDE17B2368002904D04A005218DB
:101EF0009A18033A5670A27B002A00D1A673E673A3
:101F0000E4E7C046F8B5467B03687500AD19033DAC
:101F10000F00595D0400FFF761FF002F0ED1236809
:101F2000002805D00021420012189A18033A917037
:101F300000225B195A7060733000F8BDE17B2368A2
:101F4000002904D04A0052189A18033A5670A27B0E
:101F5000002A00D1A673E673E2E7C04670B504001C
:101F6000002943D0437B8B4255D005684800401878
:101F7000033828188278002A38D053009B18033B76
:101F8000EA5CEE188A4202D134E0002A08D05300FD
:101F90009B18033BEB185A788A42F6D142785A7064
:101FA00000230122837043702000FFF781FF667BCE
:101FB0000500002E17D000281AD002003100A068BA
:101FC000636898472168002817D06B005B1972007E
:101FD000033B9219CB18033A9E7088188A5C002A3A
:101FE00023D1057035000120657300E0002070BD2D
:101FF0003500F8E743783370D2E773009B196A0025
:10200000033B5219CB18033A9D7088188A5C002A4A
:1020100008D10670E7E701221900FFF749FF607356
:102020000120E4E75A700670DDE75A70D9E7C04630
:10203000F0B5C646076B04000E00150000B5FB079F
:102040000CD422008023E16A2C324E405B013540E3
:1020500013431D60276380BCB846F0BD0200C02357
:1020600030329B0113430C4A1A60436A826A9B0117
:1020700098460620904400F08FF9434607499B029A
:10208000984601F07BFC0100404601F077FC0021FE
:10209000FFF77EFDD5E7C046010300004E0E0000AD
:1020A00070B5040006200D0000F076F92900C0008C
:1020B00001F064FCC30906D0104A934214D90023EE
:1020C0000F4D104A01E040250122626200210022EA
:1020D000A3622000FFF7ACFF062000F05DF92900A5
:1020E000800001F04BFC70BD7F22104001304008A1
:1020F0009D011A002D180300E7E7C046FEFF00000F
:10210000C0FF3F00FFFF000070B5040006200E0076
:1021100000F042F9051E2FD0184B1949E21853421E
:102120005A418023DB039C469205164B62441A6099
:10213000154B1A6010008B689843FBD10F4B802120
:10214000E3185A425341114A5B004900995220005A
:102150003100FFF7A5FF6E22050060212000FFF788
:1021600067FF220080232C329B01134310221A6048
:10217000074B23630323A364280070BD0080FCBFCA
:1021800000C0004000E0004000F0004008180020BF
:1021900001030000F0B5DE464E4657464546E0B521
:1021A00083B001921A0E93461E0205000023894651
:1021B000300059460C9A01F01FFC374B6C009C46CE
:1021C0006419A400644463680700834200D260601D
:1021D0002B1FDBB29846012B38D9C02380229B01EC
:1021E000234312011A602D4BAD0059599A4600291C
:1021F00023D1019A236852015340E0221A408023E0
:102200005B0123431A604246012A38D98023802289
:102210009B01234312011A6030003A000023594603
:10222000676001F0E9FB53465851012003B0F0BC50
:10223000BB46B246A946A046F0BD586901F09EFBD8
:10224000431C5800C0180338FDD2D2E74B46012B7F
:10225000C3D1C02303229B0123431A60023AA3681F
:102260001A42FCD0019A236852015A40E0231A40D6
:1022700080235B0123431A60084AAD0092464A4618
:102280002168514003220A401A6001224B469A40BD
:10229000A3681A42FCD0B9E700800040A4120020D5
:1022A00030B50C2083B000F0CDF8FEF77BFD0028A0
:1022B0000BD02D482D4A01000300283104C38B4266
:1022C000FCD12B4B436203B030BD2A4CA06700F019
:1022D000C1F80122284B1A60636C012BFCD1032248
:1022E000264B1A60234A936B012BFCD101330093D8
:1022F0000121234A2348043300F054F80523012127
:102300000093214A214800F04DF8214B214D174CF4
:102310000093002202210420FFF73CFF2B00002243
:10232000012100950520FFF735FF23000022002141
:1023300000940720FFF72EFF2300002200210094C5
:102340000820FFF727FF0A4B0022009300212300FB
:102350000920FFF71FFF2B00002200210095062017
:10236000FFF718FFAFE7C046A4120020006CDC02A4
:102370001BB70000008000403CB0004030B000407F
:10238000002F685900800240008C864700C0024040
:10239000001BB70040597307014B8000C0587047BD
:1023A000A4120020F8B5040021481D0017000E00FB
:1023B00001F0E4FA0100380001F0E0FA069B29047C
:1023C0001B0319432368002B20DB1A4B1A4DE2181C
:1023D00053425A4180235B019C461203174B6244CF
:1023E0001A60174B1A601700AB689F43FBD1C022DD
:1023F000231D92011A4321232660A06013602368E5
:10240000002BFCDA0823E1601360F8BD3F2322684B
:102410001340B342D9D1A3681B051B0D8342D4D10D
:10242000EE22E368D20213408B42CED1EDE7C046E4
:10243000001BB7000040FDBF00C0004000E00040AE
:1024400000F000408023024A9B000343D3627047A0
:1024500000800540AA23064A1B0113602F2305496B
:10246000D360054B19605368002BFCDA7047C046F7
:102470000040024000B0FA00006002402B4B2C4AA2
:1024800070B51A602B4A2C4B2C491A6014008B68CB
:102490009C43FBD12A4D2B4EB54208D2013E761B00
:1024A000B60808CD984723000134B342F9D1FFF7AD
:1024B000F7FE254A204B1A60204A9368DB43DB0174
:1024C000DD09002BF9D14022204B214C214E9A6787
:1024D0005A671A67DA66B44208D223682000002BD4
:1024E00020D00834FEF78AFFB442F6D31A4E1B4CB4
:1024F000C022A168300002F0B1F8A660FEF7CAFC65
:10250000FEF754FFFFF76AF9154C164EB44208D295
:10251000013E361BB60808CC98472B0001359E4279
:10252000F9D170BDFEF75CFF0834D4E700E000404D
:10253000BFCDFBFEFE7F3C0000F0004000C000402D
:102540008803002098030020FFFFFF0100F00140F6
:1025500080030020880300200000002000ED00E040
:10256000980300209C03002000BEFDE710B5FFF794
:10257000FBFFC0460FB400B5084883B002F094F9E1
:10258000049B002B07D005A91800019101F07CF9EC
:10259000034802F089F90120FFF7E6FFE07F001011
:1025A000947C001010B50148FFF7E4FFF07F0010A5
:1025B0007047C046F8B557464E464546DE46E0B53C
:1025C00099460A9B07009A460D9B8846934615003C
:1025D0000B9E9B0710D10C9B9E420DD29D1B14009D
:1025E0000E005D4422004B46013431002020B847E4
:1025F000A542F7D1B0460B9E002E27D04446751950
:102600005346AA1B013E985D21004B46B847002E59
:10261000F6D123002C0098460D9B9B070FD55B46F7
:10262000E51A0C9BAB420AD94646984622004B4617
:10263000310020200135B84701344545F6D320004C
:10264000F0BCBB46B246A946A046F8BD2C00E3E765
:10265000F0B54F464646D646C0B584B098460EAB58
:102660001B78129F994694460D9C109B119EBA07A9
:1026700025D4002E4BD19C4200D3C1E001223A4028
:1026800092461F2C00D9BAE00C9A551E302201E068
:10269000202C03D001342A55A342F9D85246002AEF
:1026A0000DD0A6420BD9202C44D00C9A551E3022B6
:1026B00001E0202C3ED001342A55B442F9D1FA066B
:1026C0004ED57A053FD4002C39D10F9B102B00D169
:1026D0007BE00F9B022B00D18CE030230C9A01246D
:1026E00013704B46002B40D02D230C9A1355013408
:1026F0000C9B624600930397434602960194FFF7B2
:1027000059FF04B0E0BCBA46B146A846F0BD01226C
:1027100015003D40AA463A4230D04A46002A02D12E
:102720000C323A4200D0013E9C42BAD21F2CABD9A7
:10273000202E28D92024FA06DAD57A0503D4A3421C
:102740002ED0A6422CD00F9B102B34D00F9B022BE7
:1027500020D0202CCCD030220C9B1B191A700134B5
:10276000202CC5D04B46002BBED17B070DD43B0798
:10277000BED520230C9A13550134B9E79C429ED252
:102780001F2C00D880E7202499E72B230C9A13559F
:102790000134ADE7202CABD00C9B1B1901343BE07E
:1027A000631E012C91D00F9A102A2BD00F9A022A67
:1027B0002FD01C00CFE7BB060ED4202C98D00C9B4A
:1027C0001A19013478231370C3E7BB060DD478239C
:1027D0000C9A01241370BEE7202C00D188E7582200
:1027E0000C9B1B191A700134B3E758230C9A01246F
:1027F0001370B0E70C9A603301241370ABE7202408
:1028000000265CE7023CBA06E9D40C9A12191C00B7
:10281000D8E70C9A9246534462221A7099E7C04650
:10282000F0B54E46DE4657464546E0B593B09B466A
:102830001CAB20CB89461B7892461E9E08900993BC
:10284000002D08D11023219A00249A431300219AC5
:102850002193520524D4219A6123920639D402AAE5
:1028600094460A2252421F279046DBB20024674456
:10287000984408E03033DBB201343B55B5420FD306
:10288000202C0DD005003100280001F077F8CBB2E4
:102890000929EFD94344DBB201343B55B542EFD2AD
:1028A000219B52460693209B494605931F9B0898FF
:1028B0000493099B039602930AAB009301945B4631
:1028C000FFF7C6FE13B0F0BCBB46B246A946A04611
:1028D000F0BD4123C3E7C046F0B54E464546DE464F
:1028E0005746E0B595B09B4620AB1B781E9F0B93D7
:1028F000229B1F9D99463B008046239E09910A9288
:102900002B4308D1269A10339A431300269A0024A9
:10291000269352052CD4269A6123920642D40A2289
:1029200052429246DBB200249A440EE01F2130321C
:1029300004ABD2B201345B181A55AE4218D8AE427D
:1029400032D0202C14D0070065464A4633003800A8
:10295000290001F051F8D2B28C46092AE6D91F218C
:10296000524404ABD2B201345B181A55AE42E6D9D8
:10297000269B40460693259B0A9A0593249B09991A
:1029800004934B4603930B9B019402930CAB00936F
:102990005B46FFF75DFE15B0F0BCBB46B246A946EC
:1029A000A046F0BD4123BAE7B945CAD9E0E7C04621
:1029B000F0B5DE4657464E464546E0B591B09A46DC
:1029C0001A9B8B4699461B9B079098460892434654
:1029D0004A464846414601F09AFA002800D0A5E050
:1029E000012248464146D74B524201F08BFA00285B
:1029F00000D09BE0012248464146D34B524201F0B1
:102A00006BFA002800D091E000220023484641469E
:102A100001F062FA002800D08BE14E464746802341
:102A20001E9ADB001A400D921E9A1A4201D106230B
:102A30001C9333000A960B973B4300D08FE01E9BFC
:102A40001B0500D563E10023042409931D9B002589
:102A50009C4200D21D1B02231E9A1A400C921E9A01
:102A6000134203D0634263415B421D40099B002B2C
:102A700007D00A9A0B9B3000390001F0CCF9060010
:102A80000F00002200234846414601F025FA0028A5
:102A900003D0802109067B181F001E9AAB4B0096BD
:102AA00001971340079E04931C9B089A0395029379
:102AB000594653463000904600F078F90500002C46
:102AC00045D01E9B2A0098061F23C01798435946DD
:102AD00053466530B04705230593002309990393B6
:102AE0000A330293CB0F0193CB17C81858406F1CC1
:102AF000013C534600903A00594630000494FFF7D9
:102B00008FFE0C9B0500002B21D04346C41A1D9B51
:102B1000A3421CD937001E002A00534659462020E4
:102B20000134B8470135B442F6D310E01E9B4A4643
:102B300004931D9B594603931C9B0798029343469D
:102B4000009201935346089A00F030F905002800DE
:102B500011B0F0BCBB46B246A946A046F0BD7C4BC6
:102B600078009C46400D604401F0E4F9794A7A4BC4
:102B700001F06FF9794A7A4B01F044F9794A3B0345
:102B80001B0B1A4304000D000A981100764B00221B
:102B900001F02FF9754A764B01F05BF902000B004A
:102BA0002000290001F02EF901F0DCF9099001F074
:102BB000C1F9704A704B04000D0001F04AF900227F
:102BC0006E4B01F01FF901F0CDF96D4A6D4B2900F4
:102BD0000C90200001F03DF904000C980D0001F06C
:102BE000A9F9694A694B01F034F902000B00200091
:102BF000290001F0FEF802000B0004000D0001F0B6
:102C000028F922002B000A900B912000290001F0E6
:102C1000F9F800220E900F910A980B995C4B01F085
:102C2000FAF800225B4B01F0EDF802000B000A9865
:102C30000B9901F0F0F80022574B01F0E3F8020085
:102C40000B000A980B9901F0E6F80A900B9180218D
:102C500022002B000020C90501F0CBF802000B0078
:102C60000A980B9901F0CEF802000B000E980F990C
:102C700001F0D1F800223B4B01F0C4F8474B0C9C0B
:102C80009C4664442305002201F0E3F832003B0037
:102C900004000D0001F036F900282CD10A940B95A0
:102CA000C624099B63339C42A4411E9B64420434A6
:102CB0001B0500D4CAE60A9A0B9B1100194328D0C1
:102CC00030003900364A374B01F014F9002807D09C
:102CD000002230003900344B01F0FEF8002818D1F2
:102CE0001C9B002B00D1B1E60D9B5A1E93411C9AF0
:102CF000D31A1C93AAE6099B0022013B09932000EA
:102D00002900244B01F087F80A900B91C8E70023B3
:102D100009931C9A099B9A4211DDD01A431E1C93F9
:102D200080231E9ADB001A43002300241E9209937D
:102D30008CE680231B0643444E461F006FE60023AB
:102D40001C93EDE7FFFFEF7FFFFFEFFFFFF7FFFFB4
:102D500001FCFFFFFB799F501344D33FB3C8608B46
:102D6000288AC63F0000F03F0000F83F61436F63D0
:102D7000A787D23F71A379094F930A400000E03F33
:102D80001655B5BBB16B0240EF39FAFE422EE63F55
:102D900000002C400000244000001840FF03000009
:102DA0002D431CEBE2361A3F80842E41F0B54E468F
:102DB000DE4657464546E0B597B09946209E219F8E
:102DC000229B8346984607910C923B0032003000CC
:102DD000390001F09CF8002800D0A9E10122300060
:102DE0003900CA4B524201F077F8002800D0E1E0E8
:102DF000012230003900C64B524201F083F800280E
:102E000000D0B7E0002230003900C24B01F07AF860
:102E1000002800D099E0002230003900BE4B01F0BC
:102E20005BF8002800D090E0002200233000390039
:102E300001F052F8002800D0B1E000230D93249B4C
:102E40005B0501D40623984608AB9C461722002454
:102E500030234146624404E0013413550139202CEB
:102E600001D00929F8D888463000390001F07AF8F5
:102E70004346DA00A94B05009B181A685B68089264
:102E8000099301F057F802000B003000390000F000
:102E9000B0FF089A099B00F0DCFF0A900B9101F04B
:102EA00085F8824601F042F802000B000A980B995F
:102EB00000F09FFF00229A4B0A900B9101F022F83C
:102EC000002800D1C0E001239C46E244504601F0B6
:102ED0002DF802000B000898099901F003F800286A
:102EE00002D000239A4601354346002B6AD008AB36
:102EF00017269C4608956644554614E001235B421C
:102F000043440A2128009A4600F038FD013430314C
:102F10003719397028000A2100F030FD092D00D83A
:102F2000D0E0D0460500202CE8D10EAB9846032314
:102F3000249A1340012B00D196E02023249A019378
:102F40000392239A434602921EE0249B5846049320
:102F5000239B00960197039343460C9A029307998B
:102F60004B46FFF725FD17B0F0BCBB46B246A9465D
:102F7000A046F0BD249B5B070ED40322694B249925
:102F80000192039123990291009358464B460C9A63
:102F90000799FFF70FFBE6E70422634BEFE73B00DF
:102FA00032000020002100F024FF012306000F0062
:102FB0000D9344E7249B0393239B029304230193E3
:102FC0005A4BE1E7280000F0B5FF02000B0030008B
:102FD000390000F00EFF524B002206000F0000F0F7
:102FE0007BFF0EAB984600280AD100223000390042
:102FF0004B4B00F087FF002802D1EB0700D50135CD
:10300000202C94D008AA94461723280063440A2150
:1030100001341E1900F08AFC3031280031700A2179
:1030200000F084FC051EEBD10323249A1340012BEE
:103030001BD0202C00D180E70D9B002B35D02D22FA
:103040004146631C0A5579E700220A980B99344BD4
:1030500000F042FF002800D046E75346002B51D134
:1030600001239C46E2443FE72024239B002BE0D031
:103070000D9B002B03D1249A0C33134202D0239BC7
:10308000013B2393239BA342D3D908AB9C46172231
:1030900030236244202C00D14FE72399013413558B
:1030A0008C42C6D0202CF8D147E7249B5B0724D460
:1030B000249A2300120700D440E72022414601331E
:1030C0000A553BE75746089D202C00D12DE72200EA
:1030D00030214046002F09D00132B154202A00D1BE
:1030E00023E7D3431B191B18002BF5D10EAB9846D1
:1030F0002E234146541C8B5482E72B224146631CED
:103100000A551BE7DB0700D4EEE6A9E7FFFFEFFF58
:10311000FFFFEF7F65CDCD4165CDCDC1F8810010BA
:103120000000E03FFC7F0010008000100C800010C9
:10313000249B0393239B029303230193004B23E7D8
:103140000880001010B5002800D110BD01F09EFBD2
:10315000FBE7C0460B0010B5002802D049681B6889
:10316000984710BDF0B55746DE464E464546E0B599
:1031700095B01C001E9B91469B46C84AC84B824690
:103180000F1E1A6000D1CFE1002320789846002856
:1031900000D1D1E11E005B460B9309E032004B46A3
:1031A0003900751CD0472E000134207800284AD001
:1031B0002528F3D110239B460C3B9846023B002266
:1031C0009C460134207825000300203BDBB2102B05
:1031D00003D8B4499B00CB589F460300303B092BD2
:1031E00055D9002398462A2864D000242E283FD0A1
:1031F0000300683BDBB2122B08D8AB499B00CB58CD
:103200009F4680235B0068781A4301350300253B05
:10321000DBB2532B57D8A5499B00CB589F460123BF
:1032200001341A43CEE7634601341A43CAE74346E2
:1032300001341A43C6E75B4601341A43C2E7082348
:1032400001341A43BEE7B0463400C14503D8012318
:103250005B424B4498464B46424639000020D047DB
:10326000200015B0F0BCBB46B246A946A046F0BD52
:10327000687880230100DB0030391A436B1C092970
:1032800000D85BE12A2800D168E11D00B0E70023E7
:103290009846030041468800401801354000C01898
:1032A0002B7801001800303830390928F3D918007C
:1032B00088469AE70B9B02CB884600290CDB607896
:1032C0000B93651C91E7731C984632004B463900FE
:1032D000D04746466C1C68E702210A4341464942F2
:1032E000884660780B93651C7FE7782800D16DE1F4
:1032F000582800D197E16F2800D158E2622800D108
:103300008CE21023110099430B00692800D0A6E23B
:10331000520500D533E20A220C929A0500D5FEE14F
:10332000DA0500D55FE25A0600D52BE20B9A1100B0
:103330001A0600D481E204C98C4612B2D117501883
:103340004840614680B20B910593434604930C9B21
:10335000D20F039402930192009032004B46390041
:103360005046FFF75DFA6C1C06001EE780239B00A9
:1033700068781A43013549E76878682800D15EE12A
:10338000802301351A4341E768786C2800D15BE15E
:1033900080235B001A43013538E7462800D112E14B
:1033A00007210B9B0492073342468B43190002947A
:1033B00003920CC95046009201930B9132004B4688
:1033C0003900FFF7F3FC6C1C0600EEE60B9B02CB0A
:1033D0000B910D93002C00D0C9E00B789C46002B7C
:1033E00000D133E202235B420B990133C8180B0072
:1033F00002E0984200D12DE1597801330029F8D13B
:103400000B995B1A0C9380231100DB0019400E917D
:103410001A4203D00C9BA34200D90C94022319003A
:1034200011400F91134200D154E16046002800D1B1
:103430003BE10B9B32009E1B4346AB46B8460E9DBC
:1034400057460B93B246260000E02200002D04D020
:10345000731E002E00D101E11E004B464146541C54
:10346000B8475346185D0028EFD10B9B5D46BA461E
:10347000A346474698460F9B002B00D014E10D9BB6
:103480005E466C1C0B9390E6731C984632004B46CC
:1034900039002520D04746466C1C86E66531001071
:1034A000CC1500201480001058800010A48000105B
:1034B0000B9B0394984621231A43193B049308332A
:1034C0000293002305924246019308CA39009046B0
:1034D000009332004B465046FFF7A2F943460600E0
:1034E0006C1C0B9361E6930700D4BEE00B9B32008B
:1034F00001CB39009B46C0B24B46D0474346741CB3
:103500004644012B00D84DE1A846554622004B46C3
:10351000013439002020A847B442F7D1AA465B46BF
:1035200045460B936C1C40E6CE4B20789A46002310
:103530009846002800D02DE6002486E60100A00071
:103540000019013340004018197830380400080091
:1035500030380928F3D908001D0049E60B9BA878EC
:1035600010CB0235E143C9170C400B9340E60B9B8F
:103570001B789C46002B00D167E1631E34E72023B3
:1035800001009943472904D180231B011A430223D8
:103590009843452801D120231A4307210B9B04920D
:1035A000073342468B431900029403920CC95046DC
:1035B000009201930B9132004B463900FFF7F8F966
:1035C0006C1C0600F1E520231A43E9E610230C9356
:1035D0000C23110099430B0052052DD4692800D10A
:1035E0009BE6642800D198E68022180092001040E3
:1035F000134200D0E6E0DA0500D512E10B985A0636
:1036000000D5C8E01A0600D422E104C81204120C46
:103610000B900593434604930C9B03940293002361
:103620000092019399E60C231100994314330B4344
:1036300010210C915205D7D501229343CEE7C02328
:10364000A8781A430235E1E5C0239B00A8781A4305
:103650000235DBE50B9BC31A0C93D4E60B9B5D464E
:10366000BA4693464746984605E74346012B00D89D
:10367000F3E0741E4444A846554632004B460136DA
:1036800039002020A847A642F7D1AA4645460B9B01
:10369000220001CB39009846C0B24B46D047434682
:1036A000661C0B936C1C80E55E460C9A904534D9E1
:1036B00043469B199B1AA8461C00554632004B46B0
:1036C000013639002020A847A642F7D1AA46A346D2
:1036D0004546D4E60C9A531C904500D8BBE04346BF
:1036E0009B199B1A9B465346A2465C46AB461D005F
:1036F00032004B46013639002020A847A642F7D1B8
:10370000434601330C930B9B54461B78AA469C46B8
:103710005D466046002800D08BE6B346AFE6082140
:1037200007208C460B9A07328243944405CA0893BB
:10373000434607930C9B6146049300230593D30FE4
:103740000293D317109311930B910694109B119C25
:103750001900414012912100514013911299139A7E
:10376000C91AA24113000A000092019339003200E5
:103770004B465046FFF7B0F86C1C060015E50A22D0
:103780000C9259E70B9A01CA9446FF226146024007
:1037900010000B91D8E504C89446FF2261460B90B7
:1037A0000A4036E75B4626000B936C1CFDE40823B9
:1037B0000C9313001A00642800D009E75A0500D4BE
:1037C000ABE539E70893434607200B9A07930C9B18
:1037D0000732824304930023110006940593029359
:1037E0000CC90B91C0E70B9A110004C9059343461D
:1037F0008B4604930C9B03940293D30F0193D3172E
:10380000D2185A4000924B46320039005046FFF71A
:1038100007F85B4606000B936C1CC6E402230C936E
:10382000C7E70593434604930C9B0B9A03940293BA
:10383000019008CA93460093E5E704C98C46D11766
:103840005018484061460B917EE500230C93DAE561
:1038500004C80B90DDE60C935BE7340017E70A22FF
:103860000C92A7E7B125001000B585B003910121A6
:1038700002900093034813004A4202A9FFF772FC2A
:1038800005B000BD5531001010B5094A0300146899
:1038900084B0002C08D0012200910648524203A9AE
:1038A000A047012004B010BD00F0FEFF0020F9E7A2
:1038B000CC1500204531001001480421014B184768
:1038C00020030020E9380010142310B501001888E7
:1038D00004331B88984710BD162310B501001888C3
:1038E00002331B88984710BDF8B54746CE4680B5D1
:1038F0000F1E19D014239946043304000025012615
:1039000098464B461888434621681B88984701C44F
:10391000431E9841013540420640AF42F1D130008C
:10392000C0BCB946B046F8BD0126F8E7124A936F0D
:103930009B0815D29066D166002905D0FFE7FFE706
:10394000FFE7516F106F704704B580210906C21759
:103950005140002800D0C84304F06AF9002104BD9A
:10396000F0B5146E556E576F166FFFF7E3FF1466D0
:10397000556657671667F0BD000000D0114A936F77
:103980009B0813D210665166002905D0FFE7FFE7B8
:10399000FFE7516F106F704704B5002801D0002079
:1039A000C04304F045F9002104BDC046F0B5146ED3
:1039B000556E576F166FFFF7E5FF1466556657672C
:1039C0001667F0BD000000D094464A4A926F9208F4
:1039D000624601D228E0C046F0B5464E346E756EA0
:1039E000776F366F00F020F89446424A14665566A9
:1039F000576716676246F0BD94463E4A926F92083A
:103A0000624601D254E0C046F0B53A4E346E756E4F
:103A1000776F366F00F04CF89446364A1466556658
:103A2000576716676246F0BD002B24DB11D00029D2
:103A30003EDA00B5C943404200D1013100F038F808
:103A4000C943404200D10131DB43524200D101332E
:103A500000BD002AEBD1002801D1002905D00020AB
:103A6000C90FC90701D1C043410800B504F0D8F817
:103A70000022002300BD00B500290ADBDB435242CF
:103A800000D1013300F014F8C943404200D10131A4
:103A900000BDC943404200D10131DB43524200D155
:103AA000013300F005F8DB43524200D1013300BD81
:103AB000002923D1002B18D1002A0CD0BC460D4F71
:103AC00038667A6600210023FFE7FFE7FFE77A6F99
:103AD000386F67467047002801D00748010000B5DD
:103AE00004F09EF80022002300BD02000B0000201D
:103AF00000217047000000D0FFFFFFFF002B00D027
:103B0000BFE0130C28D1002AE7D080B4114F3966EA
:103B10007A66FFE7FFE730B4040C7B6F396F1B0454
:103B200023433B667A66FFE7FFE7FFE7C04684B2C0
:103B30007B6F3D6F1B0423433B667A66FFE7FFE71D
:103B4000C04600232C042D0C7A6F386F0019694190
:103B5000B0BC7047000000D0F0B594460025140EAC
:103B600001D112020835140F01D112010435940F4E
:103B700001D192000235D40F01D152000135D40B8E
:103B80000134254F7C66254C3C660E0C93B2FFE752
:103B9000FFE7FFE73C6F6643360C7703BE4673438F
:103BA000DF0B5B04C01AB941130C7343DB18C91A4D
:103BB000CE086643360CB64493B273431F0F1B0105
:103BC000C01AB941130C73431F0B1B05C01AB9412E
:103BD000860D8F023E436643360C092D24DB520AC4
:103BE0007243801A7703460A6643360C16235B1B22
:103BF000DE40DF40BF1964466643821B70460435D1
:103C000006330100D940A840C01900D30131A242B7
:103C100006D20023F0BD0000000000D0FFFFFFFF30
:103C2000121B0130F3D3F1E709277F1BFE406446E6
:103C3000A2B27243801A00D20139220C7243130CD3
:103C40001204821A99410B007046043513370100A3
:103C5000F940A840801900D30131002B02D1A242C3
:103C60000AD2F0BD013000D30131121BFAD2013B60
:103C7000F8D1A24200D2F0BD013000D30131121BB5
:103C8000F7E7F0B51C0C00D080E00CB400251C0A4E
:103C900004D11B02160E3343120208351C0B04D14B
:103CA0001B01160F3343120104359C0B04D19B00FA
:103CB000960F334392000235DC0B02D192185B4120
:103CC00001351C00971864410134464F7C66464C10
:103CD0003C660E0CFFE7FFE7FFE7C0463C6F66431C
:103CE000360C7703BE4697B27743C01B00D201392A
:103CF000C01B00D201399FB27743C91BC91B170CE7
:103D000077437E04FF0B801BB941CE086643360C17
:103D10000C2D33DBB644120B1F053A431B0B97B235
:103D20007743C01B00D201399FB27743C91B170CE0
:103D300077433E043F0C801BB941860D8F023E4302
:103D4000664329277F1BFE400C3D7746AF40BF19D5
:103D500030BCA2B2ABB272437343801A9941220CB9
:103D60007243130C1204801A994102000B000137B0
:103D7000001BA941F9D2781E0021F0BD0C277F1B42
:103D8000FE4077467F0BAF40FF19E0E700245D1C43
:103D900007D0144F7D663966FFE7FFE7FFE7FFE7CF
:103DA0003C6F95B29EB265436643401BB141150C12
:103DB0001E0C6543664336042F0C3E432D04401B06
:103DC000B141994204D202000B0020000021F0BD55
:103DD00001D19042F7D3801A994101349942F2D32C
:103DE000F6E70000000000D0FFFFFFFF4840414021
:103DF000484018B41B4B5B68FC46019308BD04DFC8
:103E00005740001018B4174B1B68FC46019308BDBF
:103E100000DF614000109446134A926F920809D265
:103E2000624618B40F4BDB68FC46019308BD0CDFFB
:103E3000194300100C4AF0B5146E556E576F166F8B
:103E40006246FFF7EEFF084A146655665767166725
:103E5000F0BD18B4034B9B68FC46019308BD08DF16
:103E6000BD410010E8150020000000D0FFB5504013
:103E70004240504059404B40594000E0FFB5154F7B
:103E80004C00640D03D0BC4204D10C0314D80020B4
:103E9000090D09055C00640D03D0BC4204D11C036C
:103EA0000AD800221B0D1B0501264B4009D44B40AC
:103EB00003D58B4200D18242FFBD9942FCD1904292
:103EC000FFBD0B43DB1803431343F5D0C943491827
:103ED000FFBD0000FF07000000B5FFF7CFFF8041E6
:103EE00000BDC04600B5FFF7C9FF01D9002000BDE5
:103EF000012000BD00B5FFF7B9FF01D9002000BDCA
:103F0000012000BD00B5FFF7B1FF804100BD0120D9
:103F100040054A00121804D85A00121801D800208F
:103F200070470120704700207047000000210028E2
:103F300005D17047C1174840401AFAD0C90713B5D8
:103F4000064B1B6898470CBC441CA2401005120B82
:103F50000349091B09051943114310BDE816002048
:103F60001F04000010B54C00620D8023D218DB0046
:103F7000D21A5B057E2A10DD9E3A13DACC170903AC
:103F8000490819435242D140640001341532202AB5
:103F900005DAD0400843604310BD002010BD08463C
:103FA000604310BDC80FC018013810BD18B4044BD1
:103FB0005B6AFC46019308BD24DFC9440010000081
:103FC000E8150020132370B51C78012C15D010DDE6
:103FD0000F48FFF781FC0F4D01008022280000F000
:103FE0003DFB022C06D00C48FFF76EFC0B4B186013
:103FF00070BD084D0A4AAA64F5E7064D084A290033
:104000002B00803104C38B42FCD1AA64EBE7C0468D
:1040100053440000E81500204C330000E81600204F
:104020002540001007B5604601880A0A0230DF2AE1
:10403000FAD1C9B2820804D3028840880004104330
:1040400000E00068014A5050039007BDE8150020C9
:104050000FB403BC0CBCF0B50124E407634000E0DE
:10406000F0B50C0DCF0F661E3605891B640503D312
:10407000C943404200D30131640D03D0661CF60AE7
:1040800007D0E41B00207F00791C89078912803C3F
:1040900024031D0DDF0F6E1E36059B1B6D0503D31C
:1040A000DB43524200D301336D0D03D06E1CF60A80
:1040B00007D0ED1B00227F007B1C9B079B12803DDD
:1040C0002D032F1B661B58D4A446202E46DA20371A
:1040D0001400BC401D00BD40F24033412A4380180B
:1040E0005941CB0F05D0C943C0430022644250411F
:1040F000514162464D0D28D10D0D07D100281FD02A
:10410000241940414941013A0D0DF9D0640006D30C
:10411000013000D30131002C01D140084000013AA8
:104120000BD4941CE40A04D112051144DB07194492
:10413000F0BDD907204B194300E0D9070020F0BD9E
:104140000029DDD1002CDBD1F0BD0132C6074008CB
:10415000CD0728434908002EE1D0D9E73C2E29DAC3
:10416000203E40371400BC4000D00124F2401443EC
:104170001A00BB401C43D317ACE7AC46202F08DA2B
:1041800020360400B4400D00B540F84039412843C2
:10419000A5E73C2F0CDA203F40360400B44000D0A5
:1041A0000124F84004430800B1400C43C117EAE77A
:1041B00010001900002494E70000F07FF0B50C0D0A
:1041C000661E3605891BE60A6405640D02D0651C6F
:1041D000ED0A04D0002001210905803C2403A446F7
:1041E0001C0D671E3F05DB1BE70A6405640D02D04A
:1041F000651CED0A04D0002201231B05803C24032A
:104200007740644497B484B296B27443070C7E43FB
:10421000150C6F4380B26843361802D301200004A6
:104220003F183004350C00197D41844688B29AB29B
:1042300050430C0C62431F0C7C438EB27E43921998
:1042400002D301263604A4191604170C3618674148
:1042500001BC81B29AB25143040C62431B0C5C4313
:1042600080B25843121802D301200004241810040D
:10427000130C401863412D185E410020474106BCD5
:1042800088B293B258430C0C6343120C544389B266
:1042900051435B1802D301210904641819041A0C54
:1042A000091862416D1856410020474118BCF902B7
:1042B000720D1143F0026A0D1043ED020A0D03D195
:1042C0006D1940414941013B124E9B1B7600B342A0
:1042D0000ED26D0007D3013000267141664635438A
:1042E00001D1400840001B05C918E4072144F0BD76
:1042F0000BDA013306D1013004D101314F0D01D069
:104300004908F2E7E1070020F0BD01363105002041
:10431000EBE70000FF030000F0B51C0D671E3F0532
:10432000DB1BE70A6405640D02D0661CF60A04D0A4
:10433000002201231B05803C2403D0252D060026E6
:10434000F6432E661E096E66CE0FF619B446490076
:104350004F0D02D07E1CF60A03D000200021403F02
:104360003F033E1BB600B444013F7F05C91B49080B
:104370002E6F013676089C02950D25437543ED138B
:104380007543AD1301356D10F603761B0CB4CC02EA
:10439000450D2C43A2B2B3B25A43270C7B43350CD4
:1043A0006F43A4B26C431B1902D3012424043F19A8
:1043B0001C041D0CA4187D4124196D41009A91B272
:1043C000ACB26143170C7C432B0C5F4392B25A434F
:1043D000A41802D301221204BF182204230C52187D
:1043E0007B41019C6C431B19520ED9010A434401C5
:1043F000A01A81B2B2B2514303145A43360C73432C
:1044000087B27743D617D21900277E4136049B190D
:104410001704160C7F185E417316ED18F301002681
:1044200080337541A90F06D16400690AE8055B0A6B
:10443000184309D22FE00422944480337541A90A1D
:10444000A8059B0A184326D3404149412404009AF9
:10445000019B0D005543641B4343E41A95B286B299
:104460007543170C7E43030C5F4392B25A43B61850
:1044700002D301221204BF183204330C52197B41BB
:1044800052429C41002C02D400220130514140088C
:10449000CA071043490802B06246D7079210084B7A
:1044A000D218084B9A4203D212058918C919F0BDD7
:1044B0000020002A01DC3900F0BD01331905F5E7C1
:1044C000FD030000FE070000002200B5203200F0CE
:1044D00004F8080000BD000000220B150AD410B536
:1044E000944600F031F81414013400DA0021CB179F
:1044F000144C20470020002170476244343A0CD409
:104500000C2A07DA04009140904052422032D440F5
:10451000214310BDD843D94310BD203207D40C46E7
:104520009440524220321141D040204310BD080037
:10453000C917203203D452422032104110BD180056
:10454000190010BDFB4400100A0DCC0F531E1B05B3
:10455000C91A520503D3C943404200D30131520D59
:1045600003D0531CDB0A07D0121B00206400611C1F
:1045700089078912803A1203014BD21A7047000052
:10458000FF03000051434343C9188C46110C83B20A
:104590004B4310B4040C614392B280B25043624367
:1045A0001C041B0C001910BC59411304120CC01838
:1045B0005141614470470000132310B510481C7826
:1045C000FFF78AF90100012C0AD003DD80220D4893
:1045D00000F044F80C48FFF777F90C4B186010BD59
:1045E000084C5422200000F039F823002100084A2A
:1045F0005433803104C38B42FCD12262E261E9E78B
:1046000053460000EC1600204C330000E816002052
:104610001546001007B5604601880A0A0230DF2AF5
:10462000FAD1C9B2820804D302884088000410433A
:1046300000E00068014A5050039007BDEC160020CE
:1046400001480421014B184730030020E9380010CD
:10465000014B1B681847000030030020014B5B68CA
:104660001847000030030020030010B508001100B7
:104670001B68984710BDC046F0B546464F46D64623
:104680008046C0B50E00171E3FDD4B1E9946214BDC
:104690000125002400209A460DE04B461B5D0D3B92
:1046A0005A425341325DDBB20A2A0BD02B0001344F
:1046B00001359F421ADD002CEFD14346325D1B7D50
:1046C0000A2AF3D1002BF1D1A04204DA4346211A81
:1046D0001B6830189847434650461B68022198478C
:1046E000013428002B0001359F42E4DC874204DDC1
:1046F0004346391A1B6830189847F619013E33783B
:104700000D3B5A42534142461375E0BCBA46B1468E
:10471000A846F0BDA082001010B50B00417D002915
:1047200003D01900FFF7A8FF10BD0468110018009E
:10473000A047F9E7F0B5C646144B06001C6800B563
:10474000002C19D0031D9846114F02E02469002C5B
:1047500012D02568002DF9D03B68002B01D0A34270
:10476000F4D1637D3268002B0BD020004146FFF767
:1047700083FF2469002CECD10023336080BCB84651
:10478000F0BD11004046A847E0E7C0460C130020EA
:104790001015002070B50C0009680500802904D0B0
:1047A0004B1C23606418257170BD2000FFF7C2FF09
:1047B0002168F5E7F0B5DE4657464E464546E0B57A
:1047C00085B017001C0006000D00FDF7D7F9002387
:1047D000274A12184B41002B45DB264908008A4620
:1047E00003F036FA01906B1C03D1300003F0E0F9BE
:1047F0000500002C30D1204B9946204B1C68002C22
:1048000020D01F4B98460A239B4602E02469002CC7
:1048100018D02368002BF9D043461B68002B01D029
:10482000A342F3D12A0031002000C847002FEDD069
:104830005A4602AB2000DA71D91D0122C84724690B
:10484000002CE6D1019B002B09D105B0F0BCBB4682
:10485000B246A946A046F0BD0A4B9946CDE7504660
:1048600003F0D6F9F1E70122074B5242B5E7C04603
:1048700040420F0080030020194700100C13002055
:104880001015002069460010FFFFFF7F10B582B0B1
:104890006B4604000022D81D012100230470FFF79D
:1048A00089FF200002B010BD70B5040003F080F94C
:1048B00000230100050001222000FFF77BFF064BCB
:1048C0001C68002C06D06368002B00D09847246930
:1048D000002CF8D1280070BD0C1300200A4A136880
:1048E000002B05D10CE01A001B691032002B07D0F9
:1048F0009842F8D1002902D1036913600161704721
:104900000029FCD01060FAE70C130020F0B5A3B02A
:1049100004000D00FDF732F90023184A12184B412C
:10492000002B27DB164E300003F092F9002307001E
:10493000019322002B00134801A9FEF795FF019B6C
:104940000500002B02D001A8FFF7F4FE0E4B1C68F7
:10495000002C06D06368002B00D098472469002CF7
:10496000F8D1002F02D1280023B0F0BD300003F0B1
:104970004FF9F8E70122054B5242D3E740420F00BE
:1049800080030020954700100C130020FFFFFF7FDD
:104990000FB400B583B004A901C90191FFF7B6FFB8
:1049A00003B008BC04B01847F0B50D1E15DD0E4B62
:1049B0000D271A680D4B4519D31859424B410C4924
:1049C0005B005E5E20210478A64207D093691942FD
:1049D000FCD101301460A842F5D1F0BD93691942B1
:1049E000FCD11760F2E7C046101800200080FCBF21
:1049F0000818002030B504000D1E26DD002010210F
:104A00001B4B013C1A689369194219D10130936913
:104A10001942FCD1136823548542F4D1154B1B680D
:104A2000002B0CD050239363516B183B34320B4056
:104A30001100802252010A431360002815D030BDB6
:104A40000C4B1B68002BEDD1F7E70A4B1B68002BC2
:104A50000BD050223821064B1B689A635A6B3433B3
:104A60001140802252011343196003204042E6E7BF
:104A70001018002098120020064B10B51B68002B60
:104A800006D00021044A12689163044A10689847CE
:104A900010BDC04698120020101800209C12002063
:104AA0001D4BF0B51A68C64698461C4B0E00D3182D
:104AB00059424B411A4F14331C00050000B53B68A6
:104AC000002807D0002B11D0164B3D601E6080BC23
:104AD000B846F0BD002BF7D0906300212000FCF712
:104AE00003FA20001049FCF737FBEDE720000E49E0
:104AF000FCF714FA01212000FCF7F6F94346502296
:104B000038211B689A635A6B34331140802252015A
:104B100013431960D8E7C046101800200080FCBF7E
:104B2000981200209C120020794A001070B50C4E9B
:104B30000D001C003060002A03DB02211000FCF78E
:104B400055F8002C03DB02212000FCF74FF8290068
:104B50003068FDF7D9FA01210248FFF7BFFE70BDAA
:104B60001018002040030020F8B507AD2F787F25EE
:104B700004001540D609A2706A426A412383E2709C
:104B8000204BE26808005340A02206A909781206CB
:104B9000E17689060B43607766701343002F02D0DD
:104BA000013F3F043B436268136001232370164BAF
:104BB0009C4222D02D040543002E02D180239B0469
:104BC0001D43124B1E6DB605B60F012E02D0022EEC
:104BD00014D1002600F06CFDB04202D08023DB042B
:104BE0001D430A49A37F8C469A0062445560012206
:104BF00001339A401300064A5365F8BD0548FDF796
:104C0000B9FCC046000010501013002000001150E5
:104C100000201150A482001098238B4AF0B5D3587D
:104C200045469846012341465746DE464E461940C2
:104C30008A464146E0B589B00B4210D0136D9B0502
:104C40009B0F34D1802204A952008A800B8105A8D1
:104C5000012103F005F8C0227C4B92001A658023E5
:104C60004246DB001A4200D091E010234246134234
:104C700049D1082443461C4222D1402342461342D4
:104C80000DD143469B0600D5D6E0C24500D0CDE00D
:104C900009B0F0BCBB46B246A946A046F0BD52469C
:104CA0001A4392468022694B12051A65E9E70023F0
:104CB00004AA01219380138105A802F0D1FFCAE75D
:104CC00053468022022623439A46604BD2021A653D
:104CD0005D4BDB6C1E42D0D05D4805AD437FC48286
:104CE0009946877800F0CCFA082200212800FFF7C7
:104CF000AFFC4B46012128006E70AB702F71AC6089
:104D000002F0AEFFB9E752461A434F4B92469E6DF2
:104D10000123334267D101239B464C4B042599461E
:104D200043464C4FD0469A4606E00134A54206D190
:104D300002352037222D48D0002E50D0AC1E5B46C5
:104D4000A3401E42F1D04A46380093659E4300F0CE
:104D5000FFFA0028E9D07B7FBA78F98A38000193FE
:104D60000292039100F08CFA0822002105A8FFF7B7
:104D70006FFC022304A803994371029A019B0272FB
:104D80008371079105A8012102F06AFFCDE7524621
:104D90001A43924680222D4B2D4892051A6505AC88
:104DA000477F8678C58A00F06BFA08220021200030
:104DB000FFF74EFC0223A770637026716371012117
:104DC0002000079502F04CFF4FE75346C246984635
:104DD000002E00D14DE731001F48FDF7CBFB5346B5
:104DE000C246984645E71A4C9E4362682000126806
:104DF000164A936500F0ACFA00288CD0637FA77840
:104E0000E58A200005AC994600F03AFA0822002114
:104E10002000FFF71DFC022363704B462771A3702F
:104E200001212000079502F01BFF74E7514643461D
:104E30000A485940FDF79EFB8022044B12060848A1
:104E40001A65FDF797FBC046000011500030115065
:104E50001013002030130020B4820010E0820010F4
:104E6000CC82001070B500F0E5F90C230D4C0E4D0E
:104E7000A36729000520FCF76FF92900FF22052010
:104E8000FCF776F88022002192000848FFF7E0FB4B
:104E900003232364064B074AE36490230120E25076
:104EA00070BDC04600001150194C001010130020B6
:104EB000008600207B0400007047C0467047C04653
:104EC000044B186DC0239B001840431E9841C0B28C
:104ED0007047C04600001150064B10B5186D800594
:104EE000800F012802D0022801D1002010BD024805
:104EF000FDF740FB00001150A4820010F8B5CE462B
:104F000047460D0080B5002929D0174C0123260003
:104F10009946164BE13698460027FF3602E02034CA
:104F2000B4421CD0637FAB42F9D12378002BF6D07A
:104F30004946A37F20005A1C91400A0041464A6519
:104F40000B4A9B00944663441F60636827701F6090
:104F5000A36820341F6000F093F9B442E2D1C0BCD2
:104F6000B946B046F8BDC04630130020003011509D
:104F70000400115010B501210520FBF7B5FF10BD4D
:104F800070B5D37815009B0782B09E0F002B15D10A
:104F90001D481E4B83601E4B43601E4BC3606B79E4
:104FA0002A791B02AC7913435B05AA785B0D019447
:104FB0000096FFF7D9FD012002B070BD012316480D
:104FC0000278002A18D001332030102BF8D1F020BD
:104FD0000D4CEF33FF33E25C400020180F4CD30040
:104FE0001C1984600E4C9201A446634443600D4B2F
:104FF0009C466244C260D2E7034C5A1E5801D2B2AA
:1050000023189A77E9E7C04610130020800010505B
:105010000001105080011050301300208800105003
:105020000800105000021050F0B54746CE4680B53B
:1050300083B099460AAB1B880F0098467F231D005A
:105040001600154013421CD001242A4803E0013405
:105050002030102C43D00578002DF8D0437FBB4280
:10506000F5D18378B342F2D16001234C42464946E0
:10507000001900F04DF9280003B0C0BCB946B04695
:10508000F0BD1D4CA37893421DD1424649462000F5
:1050900000F03EF9194A1A4B94461F601B6DF60941
:1050A000B6009B0566449B0F012B16D0022B1DD129
:1050B000380000F0FDFAA84201D040231E43104BF7
:1050C0000125DE64D7E7238B0195E27E390000924B
:1050D00020003200FFF748FDD7E70125E8E7094A3D
:1050E00009490A48FFF754FC0025C4E70848FDF7C2
:1050F00041FAC0463013002010130020058600201E
:1051000000001150190200000C830010F4820010FE
:10511000A48200100800002370B51A4DD45CEC5432
:105120000133082BFAD180210024174A174D49007A
:105130005180D476164954709560164C164D5077B0
:105140005160D5600C6001219382144B11709176EF
:1051500018601B6D9B059C0F012C02D0022C0DD1F9
:10516000002400F0A5FA031B5A1E93410C4A9B0130
:1051700094460A4A63440120D36470BD0948FDF790
:10518000F9F9C046000010501013002080001050A4
:1051900000011050800100A080011050000011504B
:1051A00003860020A4820010F8B5028B838A0400D5
:1051B0000F00161C9A4200D91E1C8025B6B29B1BFC
:1051C000E2789BB2ED00A3823543002A02D09025FD
:1051D000AD01354301214A40E2706278002A09D0CE
:1051E000002B02D18023DB011D43002F00D02D04B2
:1051F0002800F8BDE368B8019C463200604421698C
:10520000FFF72CFA23699C46802366441B021D434A
:105210002661A38AE4E7C0467F21C309034A9B00B5
:10522000014010B59A580248FDF7A4F95803002030
:105230001C83001080220D4B520410B51A600C4BD9
:105240000C491A6010008B689843FBD10A4C9C22D1
:1052500000212000FFF7FCF98022002152010748BD
:10526000FFF7F6F90923636710BDC04600E0004070
:1052700000F0004000C0004000001150000010503D
:1052800000238376036143617047C046436870B56D
:10529000002180251E680400FFF786FF184B6D0172
:1052A0001B6C05439B0716D5A3785B0616D0154BE0
:1052B0001E4080239B053343626813608023DB001C
:1052C000A2681D4205D01168194215D10E4B2B4022
:1052D0001360156070BDA378DB09E8D0A38A002BAA
:1052E000E5D001212000FFF75FFFA023074ADB057F
:1052F000324005431343DFE7A078FFF78DFFC04638
:1053000000001150FFFFFFAFFFFBFFFFFFFFFFDFBC
:1053100070B5837E04000D001600002B09D1002318
:10532000E3820133A68225612000A376FFF7AEFF5A
:1053300070BD7F218078044AC3099B0001409A58C0
:105340000248FFF725FBEAE7580300203C830010E2
:1053500070B5867E0400002E4AD083681A681D68E6
:105360004378AD05AD0D002B19D1C38AEB18C3826C
:10537000238B9D4205D20023A38263681B68300003
:1053800070BD62681268520001D59D4213D0A38A95
:10539000002BF4D02000FFF779FF0026EFE7C1686B
:1053A0002A000069FFF75AF9E38AEB18E3822369C0
:1053B0005B192361DCE7A26815686278AD01AD0D69
:1053C000002A07D1E28AAA18E282AB42DFD9002381
:1053D000A382D4E7E1682A0020694031FFF73EF953
:1053E000E38AEB18E38223695B192361238BECE7E3
:1053F0007F2281780348CB091140034A9B009A58C9
:10540000FDF7B8F87483001058030020C278436990
:105410001A707047F0B589B06D46154C2B0022000C
:1054200007000E0003CA03C30920022200216844BA
:10543000FFF70EF901212F72EE72E38A04950393B0
:10544000A3680C4D0593E3684942069323692868D5
:10545000079302F0F5FB00232868637502F0D8FB80
:10546000069B002B01D002A8984709B0F0BDC046AA
:10547000BC040020B0110020F8B557464E46454602
:10548000DE46354BE0B59A461D00344B0700884692
:105490009146002600249B462B780134E4B2BB429F
:1054A00009D001364235052CF6D1F0BCBB46B246D8
:1054B000A946A046F8BD4346002B02D06B78434571
:1054C000EFD14B46002B02D0AB784B45E9D17301AD
:1054D0009B195B0053441B79DB07E2D5052C35D0C3
:1054E0001F4B002B02D02000FAF778FF200002F0BB
:1054F0004BF8200001F022FD200001F007FA210006
:105500003800FFF7FBFC422200212800FFF7A0F83B
:1055100028000822FF210D30FFF79AF828001622F4
:10552000FF211530FFF794F80E4B1B7DA342B8D135
:105530005B4601211868494202F082FB0023094AB8
:1055400053755B46186802F063FBAAE70022052149
:105550003800FFF791FFC9E764100020B011002068
:10556000DD030010BC040020F0B5C64600B50E00F7
:10557000411ECBB2050082B0042B5BD84B015B18F7
:105580003E495B005F5C002E1FD0022E4BD03C4B8F
:10559000390000923B482A00FFF7FAF908239846A1
:1055A000394C3A4FA044217838000134FFF7F0F924
:1055B000A045F8D13648FFF777F931002800FFF70A
:1055C00029FF02B080BCB846F0BD2F4C617DCBB244
:1055D000022906D0032B28D0012BF2D1E388002B1F
:1055E0002BD101212B4B92B2186849429846E28296
:1055F00002F026FB032363754346186802F008FB9C
:105600002378DB0900D180260023320029003800EE
:105610000093FFF709FD0028D3D11F4A1F492048F6
:10562000FFF7B6F9CDE71F4BB2E700212800FFF7DF
:10563000F1FEC6E71C4B1F78A5E70121154B494237
:105640001868984602F0FCFA02236375434618680E
:1056500002F0DEFA2378DB0900D08026E288A36816
:105660002900009238003200FFF7DEFC0028A8D1A4
:105670000E4A0A490A48FFF78BF9A2E76410002096
:10568000B0830010B8830010BC040020E483001035
:105690003C7E0010B011002093020000CC8400106A
:1056A000F4820010A8830010D404002083020000BC
:1056B0000138C3B2042B06D843011818034B40002D
:1056C0001818C0787047024BD878FBE764100020A8
:1056D000D4040020034B1878FF38431E9841C0B211
:1056E0007047C04660030020F8B52B4E05003378A4
:1056F0000124FF2B01D02000F8BD284C20001430DD
:10570000FBF78AFE200002F01BFA254B1C60254C9B
:105710002000FBF765FE244B0522002123481C6076
:10572000FEF796FFA522224C002152002000270000
:10573000FEF78EFF182200211E48FEF789FF4B3727
:10574000FF37422200212000FEF782FF20000822BE
:10575000FF210D30FEF77CFF20001622FF211530BF
:105760004234FEF775FFA742EBD101F003FF01F0D1
:105770009BFB01F07DF828003570FFF773FB041EDA
:1057800003D02800FFF7F6FBB5E76E220A49FF3287
:105790000A48FFF7FDF8AEE760030020640300202D
:1057A000BC110020B4110020B0110020D40400204E
:1057B00064100020BC04002068840010F4820010F3
:1057C0000138C3B2042B05D843011818034B40001D
:1057D000C05C7047024B1878FBE7C046641000209D
:1057E000D404002000487047640F0020421E0B00C4
:1057F000D1B210B5042910D87F201840DB092B3313
:105800004000C01853019A180849094B52008018EB
:105810000968C01802F02AF810BDB72205490648E9
:105820009200FFF7B5F80020F6E7C046B01100205F
:1058300064100020A8840010F4820010421E0B00A7
:10584000D1B210B5042910D87F201840DB092B33C2
:105850004000C01853019A180749084B520080189D
:105860000968C01802F02AF810BD054A0549064823
:10587000FFF78EF80020F7E7B01100206410002039
:10588000EA02000094840010F4820010F0B5C646CD
:1058900000B5451E0600E8B282B0042838D81D4F76
:1058A0007F24B8466F01BC460C40654464006D001F
:1058B0006419C809444424182834E078C00714D473
:1058C0000127BC466746E0783843E0704046285CD4
:1058D000009313000A003100FFF7A6FB051E0BD052
:1058E000280002B080BCB846F0BD0B4A0B490C48FA
:1058F000FFF74EF80025F3E70122E37809489343C8
:10590000E370E37803329343E370FEF7CDFFE7E7FC
:105910000025E5E7641000200303000074840010F4
:10592000F4820010EC830010F8B5431EDAB20500D3
:105930000E00042A18D85C01E418104F64003B19CB
:105940003000D97801F0D6FF002805D0E05D3200A4
:105950002900FFF715FBF8BDCC2209490948920040
:10596000FFF716F80020F6E7074C3000E17801F069
:10597000C1FF0028F0D02078E9E7C046641000207D
:1059800038840010F4820010D4040020F0B589B0EF
:1059900016001D006A46002307001370684609229E
:1059A00002AC427041808380C3801022002120001D
:1059B000FEF74EFE6B460493064B2770069607953E
:1059C0005B7D0020002B02D1200000F0A5FB09B078
:1059D000F0BDC046BC040020F0B54546DE46574643
:1059E0004E460022B94BE0B51A7003788FB0984646
:1059F00043690C2B00D9F0E1B54A9B00D3589F4670
:105A00004346013BDAB2042A00D963E204245A0176
:105A1000B049D2185200881803790D32234303711C
:105A200000235218D05CD9B2FF2800D001E2013324
:105A3000082BF7D1A84B5878002800D053E24346F2
:105A4000052B00D19AE0A54B002B00D196E04046F3
:105A5000FAF7B2FC92E00122A14B1B6808931342B3
:105A600000D1BAE102AB597E0223480701D44B08AA
:105A70001340994AD37002AB9B7EDB067ED503238D
:105A80009178507800931422964B00F001FD75E058
:105A900002AB9C461A20052200216044FEF7D8FD87
:105AA00005230726082508AC63708B4B22000021D4
:105AB00018782670A580FFF763FA002800D1C8E1A6
:105AC000884B00220293864B012100930020002383
:105AD0000396019500F0E2FB00284FD1824A8349EA
